:020000040800F2
:10000000280600204D010008550100088D0F00084A
:10001000590100085B0100085D01000800000000B4
:100020000000000000000000000000005F01000868
:10003000610100080000000063010008251C0008A1
:1000400067010008670100086701000867010008F0
:1000500067010008670100086701000867010008E0
:1000600067010008670100086701000867010008D0
:10007000F50500086701000845060008670100084B
:10008000670100086701000867010008892000086F
:100090006521000867010008670100086701000882
:1000A0006701000867010008670100086701000890
:1000B0006701000867010008670100086701000880
:1000C0006701000867010008670100086701000870
:1000D00067010008791C000867010008A91C0008D6
:1000E0006701000867010008711F00086701000828
:1000F0006701000867010008670100086701000840
:10010000670100086701000867010008670100082F
:10011000670100086701000867010008670100081F
:10012000670100086701000867010008670100080F
:10013000DFF80CD000F02EF800480047AD2800088A
:100140002806002080F30888704700000648804792
:1001500006480047FEE7FEE7FEE7FEE7FEE7FEE7AC
:10016000FEE7FEE7FEE7FEE7391C00083101000864
:1001700040EA01039B0703D009E008C9121F08C029
:10018000042AFAD203E011F8013B00F8013B521EA9
:10019000F9D27047064C074D06E0E06840F00103D5
:1001A00094E8070098471034AC42F6D3FFF7C4FF39
:1001B000E82E0008082F000870B501EB020410F8C3
:1001C000015B15F0070301D110F8013B2A1106D19C
:1001D00010F8012B03E010F8016B01F8016B5B1EB6
:1001E000F9D12B0705D40023521E0FD401F8013B8F
:1001F000FAE710F8013B02F10202A1EB030303E06E
:1002000013F8015B01F8015B521EF9D5A142D6D368
:10021000002070BDC1B2000A40EA01207047000012
:100220001CB51048006800900E48001D0068019041
:1002300000F07EFC0C4800990068884205D10A480D
:100240000199001D006888420AD00848D0F81A10A9
:10025000491C03D1D0F81E00401C01D000201CBD59
:1002600001201CBDE8F7FF1FDE7A002000400008D7
:1002700070B5114D0026114C2878FF2800D050B9D8
:10028000002002F00BF9607B10B1667302F068FB8E
:100290002878FF2802D0C0B2012809D1012002F03D
:1002A000FDF894F8290018B184F8296002F070FB79
:1002B000BDE8704001F0AEBE1A00002088010020A9
:1002C0002DE9F041174D164C164F4435164E21E0DE
:1002D00047F6FF702860308800F00F00207007EBB1
:1002E0008000016889B20A0406D5016840F68F7261
:1002F000114001600D4807E009060BD5016848F67A
:100300000F72114001600A48217800EB810050F81B
:10031000040C8047286830800004D9D4BDE8F081FF
:1003200058000020005C0040A80000208C00002045
:10033000700000202DE9F84FDFF834A14BF68F76DE
:1003400048F6BF77494D40F68F79494C48F60F780B
:100350000AF1440ADFF81CB12EE000BF47F6FF7136
:1003600011600188444A11F00F0111702ED004EB86
:100370008101086880B2009000040BD510460A681D
:1003800002EA09020A603D49007801EB800050F85A
:10039000040C8047009800060ED53748017804EB1E
:1003A00081010A6802EA08020A603549007801EB17
:1003B000800050F8040C8047DAF800105246584686
:1003C000ABF800100904C9D4BDE8F88F2168C1F367
:1003D00001314FEA013129802168C1F301114FEA4F
:1003E000011169802168314081F400512160216848
:1003F000394081F0200121600088C00603D52068C3
:1004000080B2010616D5206800EA0800206000F0DE
:10041000C5FD20E0890401D580F4005020602068EB
:1004200069883840CA061ED4890601D580F02000AC
:100430002060C9E7010506D5206800EA09002060B0
:1004400001F032FA07E00004B6D5206800EA09009E
:10045000206000F0BDFF206829883040CA04D9D54B
:1004600080F48050D6E780F01000DDE76A000020BD
:10047000005C0040A8000020580000208C000020F4
:10048000700000201048D0F82210B1F1245F06D18E
:10049000D0F826100D4A914201D101207047D0F8C2
:1004A0002210491C03D1D0F82600401C08D008486F
:1004B000006808490840B0F1005F03D0032070478E
:1004C0000220704700207047004000087589228193
:1004D000000001080000FE2F064901EB80000168C2
:1004E000490406D5016848F68F72114041F48041F5
:1004F00001607047005C0040064901EB8000016824
:10050000490606D5016848F68F72114041F0400156
:1005100001607047005C0040044901EB8000016805
:1005200048F68F621140016070470000005C004097
:1005300010B502464FF6FF70074C07E012F8013B7A
:100540004340DBB234F8133083EA10200B00A1F1F2
:10055000010189B2F2D110BD242C000870B500242D
:100560001FE0035DDD0103F0020645EA461503F0D6
:10057000040645EAC60503F0080645EA46050826CE
:1005800006EA53063543042606EAD3063543022617
:1005900006EA5316354345EAD31353400355641C0A
:1005A000A4B28C42DDD370BD70B500241FE0035DA2
:1005B0005340DD0103F0020645EA461503F0040648
:1005C00045EAC60503F0080645EA4605082606EA98
:1005D00053063543042606EAD3063543022606EAC7
:1005E0005316354345EAD3130355641CA4B28C4219
:1005F000DDD370BD10B5202000F0BEF8012816D163
:10060000202000F03DF80A4801884906FCD5094938
:100610004FF48050086008480178FE2907D1012175
:100620000170322000F066FA05490448086010BDE8
:1006300000480040140C0140180000200400FA0596
:100640000CED00E010B54FF40054204600F094F893
:1006500001280ED1204600F013F806480178FE2943
:1006600007D101210170322000F044FA0349024809
:10067000086010BD180000200400FA050CED00E031
:10068000C10002D5024908607047024948607047BE
:100690000404024000000240016821F001010160F1
:1006A0000021016041608160C1603149304A0839F0
:1006B000904203D1486840F00F0006E02C4A143203
:1006C000904204D1486840F0F00048607047284AE2
:1006D0002832904203D1486840F47060F5E7244A1C
:1006E0003C32904203D1486840F47040EDE7204A24
:1006F0005032904203D1486840F47020E5E71C4A2C
:100700006432904203D1486840F47000DDE7184A33
:100710007832904203D1486840F07060D5E7154ABE
:10072000111F904203D1086840F00F0006E0114A03
:100730001432904204D1086840F0F000086070471D
:100740000C4A2832904203D1086840F47060F5E703
:10075000084A3C32904203D1086840F47040EDE70B
:10076000044A50329042EAD1086840F47020E5E72C
:10077000080002400804024001460020CA0001D5DA
:10078000034A00E0034A12680A4200D00120704781
:10079000000402400000024030B5036847F6F072E2
:1007A00093430C6A8A682243D1E904452C432243CF
:1007B0008C692243CC6922434C6A22438C6A2243CF
:1007C0001A430260CA6842600A6882604968C16070
:1007D00030BD00002DE9F047DFF89480254F4FF041
:1007E0003009D8F8001001F11005088A0E7A08B90E
:1007F000042E04D0AC88A04215D8042614E01E486C
:100800000178012903D00726102038802BE01B4AED
:10081000002112681A4B92B203EB42025160A7F812
:10082000009001701FE00226844200D90446A968A6
:10083000204688478246002000F06CFB0146224695
:10084000504601F0B7FD2146002000F0ABFF28889C
:100850000C49001B2880688820446880A7F8009015
:100860004FF440500880D8F800000672BDE8F087C9
:100870005C0000206C0000203A000020505C00402A
:10088000006000406A0000202DE9F047224EDFF8AA
:100890008C803027356835F8100FA968A9B100B3EE
:1008A000AC88844200D9044620468847814628887F
:1008B000001B2880688820446880002000F000FB2E
:1008C00001462246484600F0A3FD288848B1144955
:1008D0004FF4405008800021084600F063FFA8F85C
:1008E00000702888A988884201D3032001E020B144
:1008F000052031680872BDE8F0873168062008726B
:10090000084900200968084A89B202EB41014860A1
:10091000A8F80070EFE700005C0000206C000020E9
:100920006A000020505C004000600040F8B55C4C5C
:100930005C4D09262068002729684278062A05D0E0
:10094000AAB1082A4BD00A2A4ED069E00278520692
:1009500066D18078012804D0022804D0032804D06E
:100960005EE0C96954E0096A52E0496A50E0428891
:10097000A2BBC288022A53D102797ABB02785306FD
:1009800001D1838833B102F07F02012A04D0022A08
:100990000CD045E044493BE08A694079002190470A
:1009A000E0B92068807A0028F4D139E0417901F07B
:1009B0000F0001F070020B063C4951F8201003D5DE
:1009C000C1F30111090102E0C1F301310903384B00
:1009D0001B78834224D90AB90029DBD120E00078B2
:1009E00040061DD1334913E0027802F07F02012A4C
:1009F00016D1827AA2B1428892B9027982B9C288AC
:100A0000012A0DD18A6940790021904740B92A49CD
:100A100031B120684782816100208847002006E0CC
:100A200029682068096940788847032807D0216829
:100A30000A8AA2F57F43FF3B04D10E72F8BD2068FD
:100A40000672F8BD022809D042B10878000621D507
:100A5000C8880090824205D9088213E04FF0080050
:100A60000872F8BD0ED22868144B90F82C00824210
:100A700001D21F7006E0B2FBF0F400FB142008B9AD
:100A800001201870286890F82C008882BDE8F84092
:100A9000FFF7A0BE03200872094900030880F8BDD3
:100AA0005C00002060000020591A0008005C004033
:100AB000AA000020ED190008311A00083A000020B1
:100AC0006A00002070B50A48084D084E0168296088
:100AD000002440686860083E0121A25D6019FFF7AC
:100AE0003DFD641CE4B2082CF6D370BDDE7A002014
:100AF000E8F7FF1F01B581B042F28D72019808E05E
:100B000000920098411E00910028FAD10198401EE1
:100B100001900028F4DC0CBD01F0A6BE01F074BE0B
:100B2000704700000149086070470000140401404C
:100B300070B50A4D00242A2229460948FFF718FB00
:100B4000074E1A3660190121827CA019FFF72CFD8F
:100B5000641CE4B2082CF5D370BD0000004000080E
:100B6000C47A002001490320086070473801002042
:100B700070B5144C144D204600F0EAF804F50064FA
:100B8000AC42F8D32868401C14D02C460F4D2046A8
:100B900000F0DEF804F50064AC42F8D32868401C8D
:100BA00008D02C460A4D204600F0D2F804F5006427
:100BB000AC42F8D3074800F0CBF8BDE870400648D7
:100BC00000F0C6B8000001080090020800200408E8
:100BD00000000608004800080040000870B5C0EB9F
:100BE000C0020B480D4600EB8204F02160690170E1
:100BF000A81C86B26069A0F8016061696020C870B5
:100C000029466069FFF794FC61694853304670BD1E
:100C10008801002030B5C0EBC0020B4800EB820514
:100C2000F0206C6920700620A4F80100E170042116
:100C30006869FFF77DFCA08001206873A88AA41D65
:100C4000201A688330BD0000880100203EB50446AC
:100C5000C0EBC401104800EB8100018B032901D8CF
:100C600061203EBD891E02AA89B222F814100069D3
:100C700001AD425A25F81420FFF75AFC01462DF821
:100C800014103DF8140035F81410884201D10020EA
:100C90003EBD63203EBD00008801002070B50546C2
:100CA0004FF43026304600F041F8042813D10A4CA6
:100CB000206940F0020020616561206940F0400039
:100CC0002061304600F032F8052804D0216941F651
:100CD000FD721140216170BD0020024008490420CE
:100CE000CA68D20701D001207047CA68520701D5EF
:100CF00002207047C968C906FBD503207047000071
:100D0000002002400248016941F080010161704702
:100D10000020024003480249416003494160704796
:100D20002301674500200240AB89EFCD00B50346A3
:100D3000FFF7D4FF03E000BFFFF7D0FF5B1E0128E1
:100D400003D0002B00D1052000BD002BF4D1FAE721
:100D500070B5094C05462169080601D5FFF7DAFF91
:100D60002846FFF79BFF2069000603D4BDE87040CA
:100D7000FFF7C8BF70BD00000020024007490028EF
:100D8000086903D040F08000086170470006FCD578
:100D90000348486003484860704700000020024054
:100DA00023016745AB89EFCDF0B5002504460B461E
:100DB000D00701D00120F0BD56080020FFF7DEFF6C
:100DC000144A4FF47A7100271AE0106940F00100CC
:100DD000106133F8020B24F8020B0846D568ED07C2
:100DE00006D0A0F101000004000CF7D1FF250CE0B3
:100DF000D0683D46800608D5D06840F02000D0601D
:100E00003000A6F10106B6B2DFD10120FFF7B6FF30
:100E10002846F0BD00200240F0B5CA78002502F057
:100E20000F03D20601D58A7813430C784FF00F0ECA
:100E30000122ECB1D0F800400F8802FA05F63740E5
:100E4000B74211D14FEA850C0EFA0CF724EA0707D6
:100E500003FA0CF43C43CF78282F02D0482F02D05D
:100E600002E0466100E006616D1C082DE4D30460D9
:100E70000C88FF2C1ED944685FF0000606F10807B5
:100E800002FA07F50F882F40AF420FD14FEA860CC8
:100E90000EFA0CF7BC4303FA0CF73C43CF78282F2B
:100EA00000D14561CF78482F00D10561761C082E0E
:100EB000E4D34460F0BD41617047016170470000B8
:100EC0000549096889B201EBC000044901EB400003
:100ED000008980B270470000505C00400060004014
:100EE0000549096889B201EBC000044901EB4000E3
:100EF0008089C0F309007047505C004000600040EA
:100F0000034951F82000C0F301300003704700008E
:100F1000005C00400449096889B201EBC000034944
:100F200031F8100080B27047505C00400060004013
:100F3000034951F82000C0F3011000017047000080
:100F4000005C00400F4810B50168001D0368001DDB
:100F50000268002915D00C480C0A817004710C0C31
:100F60008471090E01728372190A0173190C81735D
:100F7000190E01748274110A0175110C8175110E1C
:100F8000017610BDE8F7FF1F3E000020014902482E
:100F90000160FDE70400FA050CED00E010B5134C0C
:100FA0002068017A022904D0042902D0062905D03C
:100FB00015E0FFF70FFC2068007A11E04178052961
:100FC00009D10178490606D1C07800F06DFB0848C8
:100FD0000068006A804707480068806880470820EA
:100FE00021680872BDE8104000F022BA5C000020C1
:100FF00064000020600000200A4810B501680A4A19
:101000001140B1F1005F0CD172B671B64168074C66
:1010100021600068FFF796F82068804704490420A3
:10102000086110BD000001080000FE2F1400002020
:10103000001001400A4910B506204861094A012004
:101040004FF48673547824B1002454700861064824
:1010500003E0507048610448001D036010BD0000AB
:101060000010014018000020100801400448817A57
:10107000044809B1052100E001210160704700002A
:101080000802002038010020074909680A7802F0A8
:101090007F02212A06D1FE2804D1488810B9888809
:1010A00000B9C888022070475C000020014900F0A8
:1010B000B1BC0000B4000020014900F0ABBC00004E
:1010C000AC00002005490968C978052901D900202C
:1010D0007047034A02EBC10100F09CBC5C00002099
:1010E000EC00002009B9002800D002207047000061
:1010F0000C4910B509680A7802F07F02212A07D14D
:10110000FF2805D1488818B9888808B9C88808B167
:10111000022010BD0120FFF7EFF90220FFF7DCF9F4
:10112000002010BD5C0000202C4810B50068002194
:101130008172C1722A49C9794172002000F072FAA5
:101140004FF40071002000F04FFB2021002000F040
:1011500037FB1821002000F0C3FA224890F82C1029
:10116000002000F0CDFA5821002000F00BFB0020F9
:10117000FFF7D2F9002000F0F7FA0021012000F07B
:1011800033FB9821012000F0FDFA2021012000F01E
:1011900017FB0021012000F0D3FA4021012000F0CC
:1011A00001FB0021022000F01FFBD821022000F0EB
:1011B00097FA4021022000F0A3FA4FF44051022098
:1011C00000F0BEFA0021022000F0FAFA002000F040
:1011D0006BFA05490120086010BD00005C0000208A
:1011E000662E0008BC0000203801002070477047C0
:1011F00010B5FFF7A7FE094800240068847200F0CC
:1012000039F90748046007494FF43D400880044914
:10121000091F08600448046010BD00005C00002045
:10122000445C004068000020380100207047000046
:10123000084810B50068807A00280AD006490520C1
:1012400008600120FFF758F9BDE810400220FFF7C1
:1012500043B910BD5C000020380100200149042082
:10126000086070473801002070470000F0B50F217A
:10127000C478027801234FF0E026DCB1124C2468D8
:10128000457804F4E064C4F5E064240AC4F104077A
:10129000E1408478BD400C402C4321010B4C11559A
:1012A000007800F01F018B40400906EB8000C0F879
:1012B0000031F0BD02F01F008340500906EB8000B2
:1012C000C0F88031F0BD00000CED00E000E400E06B
:1012D0000249084302490860704700000000FA050F
:1012E0000CED00E0024A11400143024801607047E2
:1012F00080FFFF1F08ED00E070B5304D28680178D1
:1013000044784A0606D001F07F0001282BD002283D
:101310002ED038E0092C06D0052C07D0032C0ED097
:10132000012C17D02FE000F0DDFB2BE0C1787F29E6
:1013300031D8817879BB818869BB807A2AE0C1780D
:10134000012920D18188F1B9407A80061BD500F0AF
:10135000E5FB17E0C178012915D1818899B9407A58
:1013600080060AD40FE00B2C0DD100F027FC09E019
:10137000012C02D0032C03D005E000F0C9FA01E0F3
:1013800000F0DEFB58B10E492046096849698847DC
:10139000032802D018B108200DE009200BE0094A0B
:1013A000062000211268084B92B203EB4202516002
:1013B000064A302111802968087270BD5C00002047
:1013C00060000020505C0040006000406C00002085
:1013D00010B50D4C2068007A032804D0052802D0EF
:1013E000072805D008E0FFF74FFA2068007A04E0EC
:1013F00006480068C0688047082021680872BDE878
:10140000104000F015B800005C00002060000020D3
:10141000064B521C520803EB410105D031F8043B46
:1014200020F8023B521EF9D17047000000600040D6
:101430000C4810B590F82C10002000F061F90A4813
:101440000068007A082802D0092809D006E0074978
:101450004FF480500880064910200880002010BDFD
:10146000012010BDBC0000205C0000206A000020AC
:101470006C00002010B5012000F07EFD064811210F
:1014800001600021054A0160031D19604FF4E0511D
:1014900011800160002010BD405C00406800002009
:1014A000044A0029516901D0014300E081435161A0
:1014B0007047000000100240044A0029D16901D0A1
:1014C000014300E08143D1617047000000100240F9
:1014D000044A0029916901D0014300E081439161F0
:1014E000704700000010024030B520494A6812F0F1
:1014F0000C031F4A03D0042B01D0082B22D002601A
:101500004A680F231B4C03EA1212A35C0268DA40FC
:1015100042604B68072505EA1323E35C22FA03F3D4
:1015200083604B6805EAD323E35C22FA03F2C260CE
:101530004968032303EA9131231F595CB2FBF1F19F
:10154000016130BD4A684B6802F470124FF002042A
:1015500013F4803F04EB924202D04B689B0301D509
:10156000054B00E0024B5A43C9E70000001002405F
:1015700000127A000400002000093D0001490860C3
:1015800070470000D800424270B51C4C072800D0BC
:101590002070217806260425194806292CD2DFE878
:1015A00001F00306090E162000F02CF824E000F0EC
:1015B00029F80AE0022060700320207070BD607876
:1015C000401E607060780028F8D1257070BD0168F9
:1015D00089B241F010010160052020700A2060707E
:1015E00070BD6178491E617061780029F8D1016889
:1015F00089B221F010010160267070BD3D0100200C
:10160000405C004010B5064C206880B220F0040019
:101610002060FFF72BFD4FF43D40206010BD00001F
:10162000405C0040024920F007000860704700005D
:10163000505C0040F0B501EBC112184B02EB4202C6
:1016400003EBC206164BC1EBC10403EBC205154AFE
:1016500002EB84010B7B5F061ED45FEAC37C4FF074
:10166000010704D05B070DD40B69F05405E01E0799
:1016700008D59B0606D40B69E8540869401C08612C
:1016800002F824700869B0F5816F03D3087B40F03D
:101690004000087300208860F0BD00001462002044
:1016A0001C66002050010020F0B50B490B4D48F698
:1016B0008F770A78002107E0CEB205EB86031C681D
:1016C0003C4034431C60491C9142F5D3034940F02F
:1016D00080004C310860F0BDAA000020005C004092
:1016E000054A21F00101126892B202EBC000034AE0
:1016F00002EB400081607047505C00400060004099
:101700000D4A12683E2992B202EBC0000B4A02EB6E
:10171000400209D94809C90601D1401E80B24FF4E0
:10172000004141EA802004E04808C90700D0401C7D
:101730008002106070470000505C00400C60004068
:10174000084A02EB800210684BF68F7300EA030030
:10175000CB0401D580F48050890401D580F4005079
:1017600010607047005C0040054901EB800108688B
:101770004BF68F72104080F44050086070470000B4
:10178000005C0040054A21F00101126892B202EBB0
:10179000C000034A42F8101070470000505C00403F
:1017A00000600040044A126892B202EBC000034A93
:1017B00002EB400041607047505C00400060004018
:1017C000084A02EB8002106848F6BF7300EA030083
:1017D000CB0601D580F01000890601D580F02000ED
:1017E00010607047005C0040044A02EB8002106801
:1017F00048F68F131840084310607047005C0040A3
:101800000CB50021264801910091026842F4803213
:1018100002604FF4A063026802F400320092019A61
:10182000521C0192009A12B9019A9A42F3D10268AD
:10183000920333D5012100911A490A6842F010023F
:101840000A600A6822F003020A600A6842F0020293
:101850000A604168416041684160416841F48061CB
:101860004160416821F47C114160416841F4E81114
:101870004160016841F08071016001688901FCD517
:10188000416821F003014160416841F0020141607B
:101890004168C1F381010229FAD10CBD00910CBD50
:1018A000001002400020024070B516480068174D35
:1018B00081B2154800EB4101098989B200EB41046E
:1018C0002868017A09290FD0217801706178417068
:1018D000A088FEF79FFC296848802089FEF79AFCC3
:1018E00029688880A089C880286801210172C08881
:1018F00028B1FFF71BF8BDE87040FFF799BDFFF76F
:10190000FBFCF8E7505C0040006000405C000020F9
:101910002DE9F04130480068017811F07F0102D0D4
:10192000022905D056E0417A01F0DF01417242E020
:101930004188E9BB0179D9BB4179294D21F0800467
:101940000A06264B55F8242003D5C2F301121201D2
:1019500002E0C2F3013212031E782346A64239D9AF
:1019600032B3807A20B308060DD555F82400C0F3B1
:101970000110012819D11846FEF7BEFD204630217E
:10198000FFF71EFF11E005EB84063068C0F301305D
:1019900001280AD14BF68F7784B11846FEF79CFDDB
:1019A0003068384080F4405030600E48006800E0F5
:1019B00010E0406980470020BDE8F0810A4890F8B7
:1019C0002C100020FFF79CFE2868384080F440501F
:1019D0002860EAE70220EFE75C000020AA00002070
:1019E000005C004064000020BC00002010B5074CE3
:1019F00030B1074800680068804720680A3010BD91
:101A0000216801200882002010BD00005C00002039
:101A100064000020054A13685A8A10B1086810440F
:101A200070478888801A1882002070475C00002068
:101A300010B5074C30B107480068806880472068BF
:101A40000C3010BD216801200882002010BD00006C
:101A50005C000020640000201E4910B5096860B1D8
:101A60001D48002202800A7853060AD002F07F0245
:101A7000012A18D0022A18D001E002200882002092
:101A800010BD497A8A0603D5027842F0020202703C
:101A9000490603D5017801F0FE0102E0017841F02A
:101AA0000101017010E00C4810BD4A7902F00F01ED
:101AB00013060A4A52F8211002D5C1F3011101E0C0
:101AC000C1F301310129E9D0054800680069804768
:101AD000E9E700005C0000203C000020005C0040C2
:101AE000640000200A4810B500680A4AC17852789C
:101AF000914203D882780AB982880AB1022010BDC7
:101B000081720548006840688047002010BD0000D1
:101B10005C000020AA00002064000020064810B5E8
:101B20000068417A41F02001417204480068C069B0
:101B30008047002010BD00005C00002064000020F1
:101B400070B51A4803681A48597921F0800500EBEE
:101B500085000C06046821F0800203D5C4F301144B
:101B6000240102E0C4F301342403124D2D78954280
:101B70000DD95A885AB954B19A7A42B10906016806
:101B800007D548F6BF72114081F0100106E002202F
:101B900070BD4BF68F72114081F480510160064890
:101BA000006880698047002070BD00005C00002054
:101BB000005C0040AA0000206400002010B50E4C1C
:101BC0000E4A20681268C17892694079904721686E
:101BD0008A7A22B118B9087908B9887808B1022040
:101BE00010BD07480068C068804720684179C1720D
:101BF000C1780173002010BD5C000020600000204F
:101C0000640000200648016889B241F008010160C3
:101C1000016889B241F004010160FEF7A3BF000032
:101C2000405C004010B500F0E9FB00F00DFCBDE8A1
:101C30001040FEF71DBB00000C48016841F0010197
:101C4000016041680A4A114041600168094A114037
:101C50000160016821F480210160416821F4FE01E6
:101C600041604FF41F018160FFF7CABD00100240C0
:101C70000000FFF8FFFFF6FE0A4882B00188ADF8C9
:101C80000010BDF8001089060AD5018821F0200156
:101C90000180001D00880021C0B202B0FFF7CABC5D
:101CA00002B070470038014038B5154C2088ADF8B7
:101CB0000000BDF80000800609D5208820F0200033
:101CC0002080201D00880121C0B2FFF7B3FCBDF8C1
:101CD000000001060B4806D50188090603D52188B6
:101CE00021F080012180BDF80010490606D500884A
:101CF000400603D5208820F04000208038BD000039
:101D0000004800400C4800400029818902D041F47D
:101D1000005101E021F4005181817047002A828A3C
:101D200001D00A4300E08A438282704710B5C1F3B4
:101D3000421301F01F040121A140012B07D0022B07
:101D400007D01430002A026805D00A4304E00C30A2
:101D5000F8E71030F6E78A43026010BD30B504465C
:101D6000008A85B00D464CF6FF710840E9880143B2
:101D70002182A1894EF6F3100140A8882A891043D8
:101D80006A890A431043A081A08A4FF6FF410840A8
:101D9000A9890143A1826846FFF7A6FB1B4884423C
:101DA00001D1039800E00298A1890904002900EB01
:101DB000C00101EB0010296802DA4FEA410101E09D
:101DC0004FEA8101B0FBF1F06422B0FBF2F14FEA7F
:101DD00001114FEA11136FF018056B4300EB8300FC
:101DE000A3891D044FF0320306D503EBC000B0FBFE
:101DF000F2F000F0070005E003EB0010B0FBF2F09A
:101E000000F00F000843208105B030BD00380140CC
:101E10002DE9F0470546C0EBC5025249524801EB97
:101E2000820486B04FF0020AC4F804A00088A0F52E
:101E30007F41FF397DD00F287BD34B49091F0968AB
:101E4000081A042875D1B1F5C05F72D8474A4549D0
:101E5000A2F116068302B71CB01D10394FF00C0812
:101E60004FF00009012D0BD091F802C052F82C2040
:101E700000924A7930F812201AB3ADF8043025E008
:101E800091F806C052F82C2000924A7A30F81220BD
:101E900012B1ADF8043004E0CA7936F81220ADF87A
:101EA00004200A7A37F81220ADF806204A7A30F872
:101EB0001200ADF80800ADF80C90ADF80A808E79EC
:101EC00013E0CA7836F81220ADF804200A7937F802
:101ED0001220ADF806204A7930F81200ADF808005B
:101EE000ADF80C90ADF80A808E78204F6946083F17
:101EF00057F82500FFF732FFA7F11000405D8DF87D
:101F0000100001208DF811008DF812908DF813004B
:101F100004A8FFF7ABF957F82500012240F225513C
:101F2000FFF704FF57F8250001228021FFF7F6FE96
:101F300000E011E057F825000121FFF7E5FE062E2D
:101F40000AD2DFE806F00305070C0C0C082002E0BB
:101F5000042000E00320606006B0BDE8F087C4F80C
:101F600004A0F9E750010020046800083C2E000896
:101F70004FF48020FEF7D6BD044A00284FF480516C
:101F8000104601D0FEF799BFFEF795BF000801404B
:101F900038B501210420FFF79BFA4FF48054ADF8C7
:101FA000004003208DF802001020194D8DF8030029
:101FB00069462846FEF730FF21462846FEF77BFF9C
:101FC000C820FEF797FD14208DF8000001248DF83D
:101FD000014000258DF802508DF803406846FFF758
:101FE00045F913208DF800008DF801408DF802505E
:101FF0008DF803406846FFF739F90020FFF7BEFA75
:102000000121C805FFF758FABDE8384000F03EB896
:10201000000801402DE9F041154C6078C00724D13B
:1020200000F02AFD1349487800281ED0134D144EA5
:102030001148144F2860F28B3A8000234B7061786E
:1020400041F001016170982100F0B4F93988012054
:10205000FFF7A8FB30210120FFF7B2FB4FF44051FE
:102060000220FFF76DFB2868B061BDE8F081000039
:10207000C001002030000020847A00202C000020C5
:10208000D801002036000020FEF71AB9064805499D
:10209000022201600A72064A0449C0E90112086876
:1020A00000470000080200205C000020BC00002067
:1020B0001401002070B5264E3068264C2080208800
:1020C000254D29880840400505D54FF6FF30306082
:1020D000224840688047208829880840800404D529
:1020E0004DF6FF703060FEF71BFD20882988084000
:1020F000C00407D54EF6FF7030600020FFF744FAA9
:1021000000F06CF920882988084000050BD5144898
:10211000007810B1FFF776FD02E00220FFF734FAF5
:102120004FF2FF703060208829880840C00505D52F
:102130004FF6FF6030600720FFF726FA20882988D5
:102140000840000403D5BDE87040FEF7F3B870BD49
:10215000445C0040A800002068000020BC00002073
:102160003C010020FFF7A6BF2DE9F04F91B00121FF
:102170000D20FFF7ADF901218803FFF7A9F901212F
:102180008804FFF799F901210820FFF7A1F901213F
:102190000846FFF785F901210220FFF781F918278A
:1021A0008DF82F704FF40070ADF82C0003208DF8DF
:1021B0002E000BA97748FEF72FFE4FF004098DF88B
:1021C0002F904FF4806AADF82CA00BA97148FEF750
:1021D00023FE00244FF4E13BADF83840ADF83C401D
:1021E0004FF00C08CDF834B0ADF83A40ADF84040AF
:1021F000ADF83E800DA96848FFF7B0FD01216648A3
:10220000FFF782FD10258DF82F502E02ADF82C60BF
:1022100003208DF82E000BA96048FEF7FDFD5F48F6
:10222000143006608DF82F70ADF82CA003208DF8C7
:102230002E000BA95948FEF7EFFD8DF82F90E8010D
:10224000ADF82C000BA95548FEF7E6FDADF8384077
:10225000ADF83C40CDF834B0ADF83A40ADF8404070
:10226000ADF83E800DA94E48FFF778FD01214C489E
:10227000FFF74AFD25208DF8300007208DF831004A
:102280008DF8324001278DF833700CA8FEF7EEFF71
:1022900040F22559012249463F48FFF747FD2720D4
:1022A0008DF8300007208DF831008DF832408DF820
:1022B00033700CA8FEF7DAFF012249463848FFF7D1
:1022C00035FDDFF8E0B05846FEF7E6F93548283826
:1022D000FEF7E2F9344801A94FF4816A0A940794A1
:1022E0000894A1E821042C484FF08009001D0090BB
:1022F000CDE905940996694658460494FEF74CFAD0
:102300002A4801A90A9407940894A1E821042448C2
:102310006946001D0090CDE90594224809962838A9
:102320000494FEF739FA0E208DF8300007208DF85E
:1023300031008DF832408DF833700CA8FEF796FF0F
:102340008DF8308007208DF831008DF832408DF8FF
:1023500033700CA8FEF78AFF012280210E48FFF798
:10236000DDFC012280210E48FFF7D8FC012110205E
:10237000FFF7AEF88DF82F500720ADF82C000320A2
:102380008DF82E000BA90A48FEF746FD11B0BDE8F6
:10239000F08F00000008014000380140000C0140AF
:1023A0000048004044000240246A00203C7600209F
:1023B00000100140084B10B5521C520803EB4101BC
:1023C00008D003784478801C43EA042321F8043BB6
:1023D000521EF6D110BD000000600040704702E0C0
:1023E00008C8121F08C1002AFAD1704770470020A0
:1023F00001E001C1121F002AFBD1704730B511481E
:10240000017800291DD0D0E901148C4217D303466E
:10241000027B1B69D5074FF0000106D022F00102B4
:1024200042F00A020273436107E0150707D522F064
:10243000080242F011020273836101700161641CA1
:10244000846030BD5001002030B51348017F002961
:1024500020D0D0E908148C421AD3034690F82820E3
:10246000DB6AD5074FF0000107D022F0010242F0ED
:102470000A0280F82820036308E0150708D522F037
:10248000080242F0110280F8282043630177C162FC
:10249000641C446230BD0000500100202DE9FC5F47
:1024A0000546C0EBC501654800EB81062846746906
:1024B00000F026F9308B002870D031690A78F02AB4
:1024C0002FD1B1F80170B842E8B201D0612104E027
:1024D000FEF7BCFB010003D0E8B2FEF79BFB20E057
:1024E0003069DFF85CB14FF00008C1784FF0010AA5
:1024F000112936D004DC012918D0102904D12EE08E
:1025000012294FD0132979D0E8B26421FEF782FB5B
:10251000B08A201A81B2E8B2FEF760FB708386F8B9
:102520000DA02846BDE8FC5F00F006BA84F804A0C0
:102530000220607124F8068F0321A4F80280A4F819
:10254000048084F80680A4F8071084F8098084F8D1
:102550000A8084F80B80681C20730D34D8E71020A3
:1025600066E0C068B0F5A02F02D9E8B26521B4E7F3
:102570003448A5B180F800A0FEF7FAFA3169324874
:102580004A68026089684160FEF79CFA1120207158
:10259000ABF80080641DCBF80480B9E74BE080F80D
:1025A0000080E9E7B0F80480BBF800209045AFD187
:1025B000A7F1080908F0FF021FFA89F1801DFDF755
:1025C000F3FF3169214BDBF804001FFA89F2891D02
:1025D000D9461844FEF7E8FBB9F80000401CA9F8FA
:1025E0000000D9F8040038440838C9F80400122063
:1025F000207124F8058FA41C8AE7FFE714A12A2282
:10260000D1E90001CDE900010F48009910300160C7
:10261000019941600C4910481239FEF7C5FB0F497A
:10262000FE200422087069460D48FEF7BDFB13200A
:102630002071641D6CE7BDE8FC9F0000880100204C
:102640001C0000201A000020D67A0020000001089B
:10265000CCCCCCCCCCCCCCCC00400008180000209A
:102660000048000870B52348234902880A800B8877
:102670001420A3F57F44FF3C39D01E4C241F23684F
:102680009A1A042A09D088811C4D2046FEF760FB67
:1026900004F50064AC42F8D370BDB3F5C05F26D832
:1026A0001448801C007888701248C01C0078C870DC
:1026B0001048001D007808710E48401D00784871D0
:1026C0000C48801D007888710A48C01D0078C871C8
:1026D00008480830007808720648093000784872C7
:1026E00004480A300078887202480B3000888881DC
:1026F00070BD000004680008400100200080000850
:10270000F0B500EBC011164A01EB410102EBC10527
:10271000144A164E02EBC104C0EBC00112484FF040
:10272000000300EB810006EB8101027B970709D5CE
:1027300022F0020242F004020273828A0A83436199
:102740000D61F0BDD50609D522F0100242F020023D
:102750000273028B0A8343610C61F0BD0B83F0BDF1
:10276000146200201C660020500100208801002017
:102770000C480B4901610C4941610C49C1620C498B
:102780000163002138380122027381600161017008
:10279000426080F828204162C1620177026270477E
:1027A0001462002088010020246A00202C6E002082
:1027B0003C76002010B51248104C104B4034C0E954
:1027C00000340F49002008310E4A8870C8704871E3
:1027D00008714870908302F12001D0838880C880FE
:1027E0000881C8810880888148814880C2E9053411
:1027F000383988700120107010BD0000447A002024
:1028000028000020D801002070B50220FEF778FBD8
:10281000104CA17801291CD0B0F5005F17D102201F
:10282000FEF75EFB0C4E0D4D02463080D821286825
:10283000FEF7EEFD0220FEF797FF094831888183FD
:10284000084929604161607820F001006070012032
:10285000A07070BDC00100203800002028000020BA
:10286000D8010020447A002010B50120FEF760FB5B
:10287000202812D1094800218170417821F00101FE
:10288000417007480178FC2907D1012101703220ED
:10289000FEF730F904490348086010BDC00100206C
:1028A000180000200400FA050CED00E0FDF7B8FC6C
:1028B000FDF7E8FD88B372B671B600214FF00060F5
:1028C000FEF710FD4FF44070FEF702FDFFF750FFDA
:1028D000FFF770FFFFF748FCFFF7C4FE0020FFF78B
:1028E00097FA0120FFF794FAFFF752FB4FF0E02030
:1028F000016921F00401016142F2273141610C4A72
:10290000002111708161016941F0030101610949F0
:10291000012062B6087061B602E0FFE7FEF76CFBCB
:102920004FF496742046FEF7E5F8FEF783FBF9E7CF
:1029300023ED00E018000020C0EBC001074800EBC9
:102940008101087B420702D520F0440003E08206A3
:1029500002D520F06000087370470000500100208D
:102960000948418B00290DD00848426C42F0020210
:102970004264426C22F0010242648164416C41F085
:1029800001014164704700008801002000000240FE
:102990000B48C18E002911D00A4A4FF480501060B4
:1029A0000948C26942F00202C261C26922F0010212
:1029B000C2610162C16941F00101C161704700005B
:1029C00088010020100C01400000024070B5094E43
:1029D0000446F02130680170A11C8DB2A0F80150AE
:1029E0006021C1702146FDF7A3FD316808532846D8
:1029F00070BD00002C00002030B50C4DF0212C687B
:102A000021700621A4F80110E07004212868FDF768
:102A10008FFD0749A0800120487028880549A41D22
:102A2000201AC88304490020887030BD2C00002083
:102A300030000020D8010020C00100200CB50D4856
:102A4000818B032901D861200CBD4069891E89B2A0
:102A5000425AADF80420FDF76BFDADF80000BDF85B
:102A60000000BDF80410884201D100200CBD632095
:102A70000CBD0000D80100202DE9FC5F5B48046814
:102A80005B48807800287DD05A485B4D00686861BB
:102A90000178F02976D1B0F80160A88BB04201D05E
:102AA000612039E0FFF7CAFF78BB68690221534F04
:102AB000C278A8464FF0010B4FF00009112A25D02B
:102AC00004DC012A08D0102A04D11CE0122A3BD0D1
:102AD000132A5FD064201FE084F804B0617124F8E9
:102AE000069F0321A4F80290A4F8049084F80690AD
:102AF000A4F8071084F8099084F80A9084F80B90E1
:102B000021730D3462E010205EE005E0C0684546A8
:102B1000B0F5A02F04D96520BDE8FC5FFFF76CBFBE
:102B200037480170FEF724F8696936484A68026040
:102B300089684160FDF7C6FF11202071A7F8029057
:102B4000641DC7F8089041E085887988BA468D42AF
:102B50003CD1A6F10807EAB2B9B2801DFDF724FD09
:102B6000D8F81410284BDAF80800BAB2891D574675
:102B70001844FEF719F97888401C7880B86830440A
:102B8000083800E030E0B86012202071A4F8055049
:102B9000E41D1BE01DA12A22D1E90001CDE90001BD
:102BA0001848009910300160019941601549194891
:102BB0001239FEF7F9F81849FC200422087069461A
:102BC0001648FEF7F1F813202071641D07480088AD
:102BD000201A80B2FFF7FAFE1149A8F81E0081F80A
:102BE00001B0034981F80290BDE8FC9F2C00002051
:102BF000C001002028000020D80100201C00002077
:102C00001A000020D67A002000000108CCCCCCCCE1
:102C1000CCCCCCCC004000081800002000480008B4
:102C2000300000200000C1C081C1400101C3C003C9
:102C3000800241C201C6C006800741C70005C1C568
:102C400081C4400401CCC00C800D41CD000FC1CF28
:102C500081CE400E000AC1CA81CB400B01C9C00918
:102C6000800841C801D8C018801941D9001BC1DBB8
:102C700081DA401A001EC1DE81DF401F01DDC01D68
:102C8000801C41DC0014C1D481D5401501D7C01788
:102C9000801641D601D2C012801341D30011C1D198
:102CA00081D0401001F0C030803141F10033C1F3D8
:102CB00081F240320036C1F681F7403701F5C03568
:102CC000803441F4003CC1FC81FD403D01FFC03F28
:102CD000803E41FE01FAC03A803B41FB0039C1F918
:102CE00081F840380028C1E881E9402901EBC02B78
:102CF000802A41EA01EEC02E802F41EF002DC1ED68
:102D000081EC402C01E4C024802541E50027C1E787
:102D100081E640260022C1E281E3402301E1C02197
:102D2000802041E001A0C060806141A10063C1A397
:102D300081A240620066C1A681A7406701A5C06567
:102D4000806441A4006CC1AC81AD406D01AFC06F27
:102D5000806E41AE01AAC06A806B41AB0069C1A917
:102D600081A840680078C1B881B9407901BBC07BB7
:102D7000807A41BA01BEC07E807F41BF007DC1BD67
:102D800081BC407C01B4C074807541B50077C1B787
:102D900081B640760072C1B281B3407301B1C07197
:102DA000807041B00050C190819140510193C05357
:102DB000805241920196C056805741970055C19567
:102DC00081944054019CC05C805D419D005FC19F27
:102DD000819E405E005AC19A819B405B0199C05917
:102DE000805841980188C04880494189004BC18B77
:102DF000818A404A004EC18E818F404F018DC04D67
:102E0000804C418C0044C184818540450187C04786
:102E1000804641860182C042804341830041C18196
:102E200081804040252700000000002000000004B1
:102E3000000600000038014000480040C0120000B9
:102E400080250000004B00000096000000E100001B
:102E500000C2010012010002FF000040E804895195
:102E6000000201020001090220000101008019098D
:102E700004000002FF000004070581024000000773
:102E80000502024000000403090426035300540015
:102E90004D006900630072006F0065006C00650002
:102EA0006300740072006F006E00690063007300BD
:102EB0002603530061006D006B006F006F006E0011
:102EC000200050004C0043002000440065007600C4
:102ED0006900630065001003530061006D006B0022
:102EE0006F006F006E000000082F00080000002037
:102EF00040010000B8010008902F000840010020A8
:102F0000E8040000EE23000845020406082D010233
:102F100003040445060708091AFF020122141A03D4
:102F200032123012311A3204290602213313190BDE
:102F30000C18086912040A151D2021150301542ECE
:102F40003308121A6608322013F1111B0829041ADB
:102F5000ED041AEF041389101B08F1041AE5041A92
:102F6000B9041AAD041AC5044132401A8638320435
:102F70001A8A0832265AB008223E33201A1AD6106E
:102F800032102970DA31809A2D0C3A5D902132018D
:0400000508000131BD
:00000001FF
