:020000040800F2
:10000000180C0020A1010008A9010008C10F000878
:10001000AD010008AF010008B101000800000000B8
:10002000000000000000000000000000B301000814
:10003000B501000800000000B7010008091300081E
:10004000BB010008BB010008BB010008BB010008A0
:10005000BB010008BB010008BB010008BB01000890
:10006000BB010008BB010008BB010008BB01000880
:10007000BB010008BB01000861090008BB010008C2
:10008000BB010008BB010008BB010008BB01000860
:10009000BB010008BB010008BB010008BB01000850
:1000A000BB010008BB010008BB010008BB01000840
:1000B000BB010008BB010008BB010008BB01000830
:1000C000BB010008BB010008BB010008BB01000820
:1000D000BB0100086D130008BB0100089D13000858
:1000E000BB010008BB010008BB010008BB01000800
:1000F000BB010008BB010008BB010008BB010008F0
:10010000BB010008BB010008BB010008BB010008DF
:10011000BB010008BB010008BB010008BB010008CF
:10012000BB010008BB010008BB010008BB010008BF
:10013000BB010008BB010008BB010008BB010008AF
:10014000BB010008BB010008BB0100080111000849
:10015000BB010008BB010008C1090008BB01000881
:10016000BB010008BB010008BB010008BB0100087F
:10017000BB010008BB010008BB010008BB0100086F
:10018000BB010008DFF80CD000F02EF80048004753
:100190004D310008180C002080F3088870470000DB
:1001A0000648804706480047FEE7FEE7FEE7FEE711
:1001B000FEE7FEE7FEE7FEE7FEE7FEE71D130008A9
:1001C0008501000840EA01039B0703D009E008C944
:1001D000121F08C0042AFAD203E011F8013B00F80C
:1001E000013B521EF9D27047064C074D06E0E0680D
:1001F00040F0010394E8070098471034AC42F6D36E
:10020000FFF7C4FF0C3700082C3700081CB5104856
:10021000006800900E48001D0068019000F00AFD83
:100220000C4800990068884205D10A480199001DD0
:10023000006888420AD00848D0F81A10491C03D137
:10024000D0F81E00401C01D000201CBD01201CBDA8
:10025000E8F7FF1FDE7A00200040000870B5114D5E
:100260000026114C2878FF2800D050B9002002F059
:1002700065FD607B10B1667302F0CAFF2878FF2825
:1002800002D0C0B2012809D1012002F057FD94F834
:10029000290018B184F8296002F0D2FFBDE870404F
:1002A00001F008BF16000020600100201048D0F8BF
:1002B0002210B1F1245F06D1D0F826100D4A9142E8
:1002C00001D101207047D0F82210491C03D1D0F889
:1002D0002600401C08D00848006808490840B0F1D2
:1002E000005F03D003207047022070470020704752
:1002F0000040000875892281000001080000FC2FE1
:1003000010B502464FF6FF70074C07E012F8013BAC
:100310004340DBB234F8133083EA10200B00A1F124
:10032000010189B2F2D110BDDC34000810B50A46D3
:100330000C0601F07F0303EB830100EBC10102D542
:1003400001F58E7101E001F55D71D2090B704A7003
:1003500002F01CF9002010BD0A4610B5090602F093
:100360007F0306D503EB830100EBC10101F58E711C
:1003700005E002EB820100EBC10101F55D71002493
:100380008C700B70D2094A7002F0E7F8002010BDA3
:1003900010B50A0604D501F07F0102F003FA01E06E
:1003A00002F0E4F9002010BD70B50C460E0601F015
:1003B0007F0505EB850100EBC10102D501F58E71CA
:1003C00001E001F55D71E4090D704C708A60CB703D
:1003D00000D0CD80022B01D100220A7102F094F8E6
:1003E000002070BD10B501F07F0404EB840100EB28
:1003F000C10101F55D714B61CA6000238B614B70D7
:100400000C70C378012B00D10A6114F0FF0F03D0E8
:1004100002F0EEF8002010BD02F008F8FAE70069DB
:10042000002261F30A1201681143016070470A4615
:1004300010B5090602F07F0306D503EB830100EB3C
:10044000C10101F58E7105E002EB820100EBC101F3
:1004500001F55D7101248C700B70D2094A7002F0B5
:10046000AFF8002010BD70B511F07F0404EB8401DB
:1004700000EBC10101F58E714FF001054D700C705C
:10048000CA600A614FF00002C1E9053203D002F0F0
:10049000AFF8002070BD01F0C9FFFAE70A0608D5E1
:1004A00001F07F0101EB810100EBC10101F58E71CB
:1004B00005E001EB810100EBC10101F55D7102F086
:1004C000A4B900002DE9F0410646002502F0D2F95A
:1004D000074655E0F80751D03069EAB20369416B2D
:1004E000D14006EB820201F00101926943EAC11199
:1004F00094680C40E1071AD00124426B04FA05F11C
:100500008A43426306EB8500806984601F48E9B234
:100510000068426830469047F078012807D135B925
:1005200096F81101042802D1304601F0DBFF2007C4
:1005300004D506EB8500082480698460E00604D5B4
:1005400006EB8500102480698460600604D506EB04
:100550008500402480698460A00704D506EB8500EF
:10056000022480698460200608D52946304600F0C0
:1005700062F906EB85018020896988606D1C7F081F
:10058000002FA7D10120BDE8F08100006400002009
:100590002DE9F0410646002402F072F90746DFF823
:1005A000988043E0F8073FD0E1B2304602F06EF9A0
:1005B0000546C00725D006EB84000125416D8D60FE
:1005C000F17801290CD1406D016904EB840006EB40
:1005D000C000C1F31201D0F87C23511AC0F88C136B
:1005E000D8F80000E1B2026830469047F078012860
:1005F00007D134B996F81101052802D1304601F02F
:1006000071FFA80704D506EB84000225406D8560C4
:10061000280709D5D8F8000081683046884706EBDE
:1006200084010820496D8860641C7F08002FB9D1BF
:100630000120BDE8F08100006400002070B506468E
:10064000C068816921F010018161F068056A05F0D8
:100650000F0000EB800006EBC004C5F3434004F537
:100660005D74072821D2DFE800F02020042020203C
:10067000150047F6F070054217D0C5F30A152A4653
:100680003046E16802F00AF9E0682844E060A069B9
:10069000284409E0082206F2CC51304602F0FEF868
:1006A000A069C5F30A110844A061F068816941F0AE
:1006B00010018161012070BD38B5044600208DF81D
:1006C000000094F812018DF8000015480068416997
:1006D0002046884720698068E2684FF400615161D4
:1006E000A17AD1B1C00718D094F81501012814D10E
:1006F0009DF80000032810D1D4F80C01016841F0E6
:1007000001010160D4F80C01016841F003010160AE
:100710000448016841F006010160012038BD000075
:100720006400002010ED00E070B50446006900256B
:100730000126416821F0010141602946204602F06E
:1007400031F80020FF2106E004EB800293699960F4
:10075000526D9160401C62788242F5D821694FF059
:10076000FF3088612846216966F30F0066F31F4059
:10077000C861216945F00B004861216945F00B0013
:1007800008612069016821F4FE610160204601F0E2
:10079000A9FEE1684FF48050486103480068016990
:1007A00020468847012070BD6400002070B50446D3
:1007B00002F084F80122002384F8122184F8143115
:1007C000194640250EE000BF01EB810004EBC0009C
:1007D00000F58E7042700170C180C370C0E9025391
:1007E000491C436160788842EED800210EE000BFCA
:1007F00001EB810004EBC00202F55D7253701170D1
:10080000D180D370C2E90253491C53616078884299
:10081000EED8204601F0E6FD204601F0DEFC002186
:10082000204602F0ABF8204601F018FD2046BDE856
:10083000704001F093BF2DE9F0470E46054601EBED
:10084000860005EBC00404F58E74D4E90501421A54
:10085000A068904200D20246D21C970805EB860998
:1008600022E0A0EB0108A168414500D2884608F1CA
:10087000030087081FFA88F3F2B22846E16802F005
:1008800092F8E16801EB0800E060A16901EB080063
:10089000A0616169884207D32178012088402969D5
:1008A0004A6B82434A630BE0D9F81800806980B232
:1008B000B84205D9D4E90501814201D20028D0D13E
:1008C0000120BDE8F08770B500241FE0035DDD0165
:1008D00003F0020645EA461503F0040645EAC6059C
:1008E00003F0080645EA4605082606EA530635439E
:1008F000042606EAD3063543022606EA5316354394
:1009000045EAD31353400355641CA4B28C42DDD393
:1009100070BD70B500241FE0035D5340DD0103F09E
:10092000020645EA461503F0040645EAC60503F04B
:10093000080645EA4605082606EA53063543042616
:1009400006EAD3063543022606EA5316354345EA3E
:10095000D3130355641CA4B28C42DDD370BD0000D8
:1009600070B5114D4FF0C0542146284600F0F4F800
:10097000002817D02146284600F046F80B48018889
:100980004906FCD50A494FF480500880094801788F
:10099000FE2907D101210170322000F039F9074901
:1009A0000548086070BD00005860024000480040E3
:1009B0001A040240140000200400FA050CED00E0C7
:1009C00070B50D4D4FF020542146284600F0C4F874
:1009D00001280FD12146284600F016F80748017873
:1009E000FE2907D101210170322000F011F90549DB
:1009F0000348086070BD0000B86402401400002085
:100A00000400FA050CED00E0074A904201D20748C5
:100A100001E005481038064A8B0001EA020101D5C1
:100A2000C1607047816070471064024000600240FE
:100A30007D0F7D0F2DE9F043016821F00101016078
:100A40000021016041608160C1600161212141613B
:100A50003C493C4A3D251039904202D18D60BDE8A9
:100A6000F083384A4FF474661832904201D18E6098
:100A7000F5E7344A4FF474173032904201D18F6059
:100A8000EDE7304A4FF0746C4832904202D1C1F821
:100A900008C0E4E72B4B2C4A6033984201D1CA606E
:100AA000DDE7284C294B7834A04201D1CB60D6E752
:100AB000DFF89080264C08F19008404501D1CC60C9
:100AC000CDE7DFF880804FF03D5908F1A808404598
:100AD00002D1C1F80C90C2E71E49DFF878800839CE
:100AE000404501D10D60BAE71A4D1835A84201D131
:100AF0000E60B4E7174D3035A84201D10F60AEE764
:100B0000144D4835A84202D1C1F800C0A7E7114DE5
:100B100010496035091FA84201D10A609FE70D4ABC
:100B20007832904201D10B6099E70A4A90329042A4
:100B300001D10C6093E7074AA83290428FD1C1F8E7
:100B400000908CE7106002403D000020400F002024
:100B500000003D20106402400246094B00209A42EA
:100B600001D2084A01E0064A103A8B0001D55268CA
:100B700000E01268044B1A400A4200D0012070477E
:100B800010640240006002407D0F7D0F30B50368A5
:100B9000124ACC6813400A682243D1E905452C4328
:100BA0002243CC6922430C6A22434C6A22438C6A5A
:100BB00022434C6B22438C6B22431A4302604269EE
:100BC00022F00703D1E90B2422431A4342610A6948
:100BD00042604A6882608968C16030BD3F801CF015
:100BE00070B50A48084D084E016829600024406825
:100BF0006860083E0121A25D6019FFF764FE641C75
:100C0000E4B2082CF6D370BDDE7A0020E8F7FF1FAF
:100C100001B581B044F2EB12019808E0009200980F
:100C2000411E00910028FAD10198401E0190002831
:100C3000F4DC0CBD70B50A4D00242A22294609486F
:100C4000FFF7C0FA074E1A3660190121827CA019FD
:100C5000FFF75FFE641CE4B2082CF5D370BD000002
:100C600000400008C47A0020082000F0F4B800001A
:100C700010B5202000F0EFF8282000F0ECF805482F
:100C80000068401C04D0BDE81040302000F0E3B8FC
:100C900010BD00000000040870B5C0EBC0020B4896
:100CA0000D4600EB8204F02160690170A81C86B239
:100CB0006069A0F8016061696020C87029466069B8
:100CC000FFF71EFB61694853304670BD600100208C
:100CD00030B5C0EBC0020B4800EB8205F0206C6918
:100CE00020700620A4F80100E17004216869FFF774
:100CF00007FBA08001206873A88AA41D201A6883BE
:100D000030BD0000600100203EB50446C0EBC401C8
:100D1000104800EB8100018B032901D861203EBD02
:100D2000891E02AA89B222F81410006901AD425A44
:100D300025F81420FFF7E4FA01462DF814103DF8C9
:100D4000140035F81410884201D100203EBD632004
:100D50003EBD0000600100200149086070470000AE
:100D60000C3C024070B50646002529B1012927D068
:100D7000022928D04FF4407500F05EF808281ED1F3
:100D8000124C206820F440702060206828432060C6
:100D9000206820F0F8002060206846F00201084337
:100DA0002060206840F48030206000F045F8216821
:100DB00021F002012160216821F0F801216070BD5D
:100DC0004FF48075D8E74FF40075D5E7103C02402A
:100DD0000B4908200A68D20301D5012070470A6830
:100DE000D20601D5052070470A6812F0EF0F01D036
:100DF0000620704709688907FBD507207047000067
:100E00000C3C02400248016841F00041016070471B
:100E1000103C024005480068002805DA03480449F0
:100E20000C3801600349016070470000103C02402B
:100E300023016745AB89EFCD08B508208DF8000088
:100E4000FFF7C6FF8DF800009DF800000128F7D0DD
:100E50009DF8000008BD10B50446FFF7DBFF022136
:100E60002046FFF77FFFBDE81040FFF7CBBF000033
:100E70002DE9F84307460E464FF400540092D00780
:100E800037D1FFF7C7FFF320FFF766FF009900296E
:100E900028DDA046184C206820F4407020602068AF
:100EA00040F480702060206840F00100206036F837
:100EB000020B27F8020B4546FFF78AFF06E00828D9
:100EC000E9D00AE0FFF784FF6D1EADB201280DD016
:100ED0001DB1216821F0010121600099891E009156
:100EE0000029ECDCBDE8F843FFF78CBF002DE9D109
:100EF000F3E7BDE8F8830000103C0240F0B50023A2
:100F0000012403270D6804FA03F21540954242D1EB
:100F1000D0F800C05E0007FA06F52CEA050CC0F810
:100F200000C091F804C0D0F800E00CFA06FC4CEACE
:100F30000E0CC0F800C091F804C0BCF1010F02D043
:100F4000BCF1020F1FD1D0F808C02CEA050CC0F884
:100F500008C091F805C0D0F808E00CFA06FC4CEA8D
:100F60000E0CC0F808C0D0F804C02CEA020CC0F87F
:100F700004C0426891F806C00CFA03FC1FFA8CFC0E
:100F800042EA0C024260C268AA43C260CA79C568DC
:100F9000B2402A43C2605B1C102BB3D3F0BD4B0799
:100FA000DB0E9A40C90810B500EB8100016A0F24DE
:100FB0009C40A1430162016A1143016210BD00001F
:100FC000014902480160FDE70400FA050CED00E06C
:100FD0000A4810B501680A4A1140B1F1005F0CD10E
:100FE00072B671B64168074C21600068FFF7D4F80B
:100FF0002068804704490420088010BD00000108D3
:101000000000FC2F1000002018080240F0B50D4829
:101010000D4E014607784B78002506240121B21CAD
:1010200027B1148053B145701180F0BD118013B108
:1010300045701480F0BD41703480F0BD4170318046
:10104000F0BD0000140000201808024010B504464E
:101050000221FFF79DF981212046FFF799F9044805
:101060004023022102682046BDE81040FFF7BAB9CC
:101070002400002070B50F21C478027801234FF0BE
:10108000E026E4B1124C246804F4E064C4F5E064A2
:10109000C4F30724C4F10405E1404478AC408578EA
:1010A0000D4025430B4C29011155007800F01F011C
:1010B0008B40400906EB8000C0F8003170BD02F0A3
:1010C0001F008340500906EB8000C0F8803170BDDE
:1010D0000CED00E000E400E002490843024908602A
:1010E000704700000000FA050CED00E0024A1140D4
:1010F000014302480160704780FFFF1F08ED00E0D8
:10110000014800F08DBC0000E0010020044A0029E5
:10111000116801D0014300E0814311607047000075
:1011200030380240044A0029116801D0014300E030
:10113000814311607047000034380240044A00299E
:10114000116801D0014300E0814311607047000045
:1011500040380240044A0029116801D0014300E0F0
:1011600081431160704700004438024070B5204A46
:101170001168204C11F00C0104D06610042903D032
:10118000082903D004601BE0066019E01849091F14
:101190000B68C3F380550B6803F03F0315B1B6FB32
:1011A000F3F301E0B4FBF3F30C680968C4F38814AB
:1011B0006343C1F30141491C4900B3FBF1F10160F4
:1011C00011680F2303EA11110B4B5C5C0168E140CD
:1011D00041601468072505EA94241C5D21FA04F493
:1011E0008460126805EA52329A5CD140C16070BDD9
:1011F000083802400024F40000000020F0B501EBA4
:10120000C112184B02EB420203EBC206164BC1EBB4
:10121000C10403EBC205154A02EB84010B7B5F0698
:101220001ED45FEAC37C4FF0010704D05B070DD4E6
:101230000B69F05405E01E0708D59B0606D40B6920
:10124000E8540869401C086102F824700869B0F588
:10125000816F03D3087B40F0400008730020886052
:10126000F0BD0000146200201C6600202801002050
:101270000CB50021214801910091026842F48032AE
:1012800002604FF4A063026802F400320092019AF7
:10129000521C0192009A12B9019A9A42F3D1026843
:1012A000920329D501210091144908310A680A6086
:1012B0000A6842F400420A600A6842F4A0520A60D6
:1012C0000B1F0F4A1A60026842F0807202600268C7
:1012D0009201FCD50B4A40F203701060086820F0C0
:1012E00003000860086840F0020008600868C0F366
:1012F00081000228FAD10CBD00910CBD00380240DB
:10130000083C4005003C024010B501F0C7FC01F06C
:10131000EBFCBDE81040FEF7A1BF00000F4810B580
:10132000016841F0010101600C4A0021083211609E
:1013300002680B4B1A400260031D0A4A1A600268D9
:1013400022F48022026005480C300160FFF790FF14
:1013500005494FF00060086010BD000000380240F1
:10136000FFFFF6FE1030002408ED00E00A4882B0CE
:101370000188ADF80010BDF80010890609D5018874
:1013800021F02001018080880021C0B202B0FFF767
:1013900035BF02B0704700000010014038B5154C51
:1013A0002088ADF80000BDF80000800609D520882F
:1013B00020F020002080201D00880121C0B2FFF70E
:1013C0001DFFBDF8000001060B4806D5018809067F
:1013D00003D5218821F080012180BDF80010490645
:1013E00006D50088400603D5208820F040002080E4
:1013F00038BD0000004800400C48004000298189A9
:1014000002D041F4005101E021F400518181704784
:10141000002A828A01D00A4300E08A438282704710
:1014200010B5C1F3421301F01F040121A140012BAB
:1014300007D0022B07D01430002A026805D00A43D7
:1014400004E00C30F8E71030F6E78A43026010BD84
:101450007FB50446008A0D4620F44051E8880843D1
:101460002082A08941F20C618843A9882A8911430E
:101470006A8902431143A181A08A20F44071A8899E
:101480000843A0826846FFF771FE1D48844202D0DF
:101490001C48844201D1039800E00298A189090404
:1014A000002900EBC00101EB0010296802DA4FEAC5
:1014B000410101E04FEA8101B0FBF1F26420B2FB8F
:1014C000F0F14FEA01114FEA11136FF018056B4369
:1014D00002EB8302A3891D044FF0320306D503EB10
:1014E000C202B2FBF0F000F0070005E003EB0212CD
:1014F000B2FBF0F000F00F00084320817FBD000038
:1015000000100140001401402DE9F0470546534901
:10151000C0EBC50201EB8204514986B04FF0020ACC
:10152000C4F804A08888A0F57F42FF3A7ED00F2837
:101530007CD30968081A042878D1B1F5804F75D892
:10154000484A4649A2F116068302B71CB01D10395D
:101550004FF00C084FF00009012D0BD091F802C09C
:1015600052F82C2000924A7930F812201AB3ADF8C4
:10157000043025E091F806C052F82C2000924A7AF7
:1015800030F8122012B1ADF8043004E0CA7936F810
:101590001220ADF804200A7A37F81220ADF80620A0
:1015A0004A7A30F81200ADF80800ADF80C90ADF8AA
:1015B0000A808E7913E0CA7836F81220ADF804203C
:1015C0000A7937F81220ADF806204A7930F812006F
:1015D000ADF80800ADF80C90ADF80A808E78214F78
:1015E0006946083F57F82500FFF732FFA7F11000C2
:1015F000405D8DF8100007208DF811008DF81290D5
:1016000001208DF8130004A8FFF734FD57F82500DA
:10161000012240F22551FFF703FF57F82500012270
:101620008021FFF7F5FE57F8250000E00FE00121CB
:10163000FFF7E4FE062E0AD2DFE806F00305070CEA
:101640000C0C082002E0042000E00320606006B0DB
:10165000BDE8F087C4F804A0F9E7000028010020E5
:1016600000C00008F436000810B5D0F8E425526830
:101670009047002010BD10B5134600240A462146AD
:10168000FEF7B0FE204610BD10B5134600240A46F2
:101690002146FEF7E8FE204610BD10B50446802125
:1016A000FEF7C5FE00212046FEF7C1FE2046BDE83C
:1016B000104000F017BF70B505460024052085F8DE
:1016C00011012346224621462846FEF78BFE284676
:1016D00000F008FF204670BD10B5C0F83C21022381
:1016E000C0F8382180F81131134600240A462146FB
:1016F000FEF7B9FE204610BD70B505460024042053
:1017000085F811012346224621462846FEF7ABFE06
:10171000284600F0E7FE204670BD000070B5054683
:1017200041B1D5F8E40542698AB395F8120103285E
:1017300046D047E095F81101002605F58E74022881
:1017400033D1E169A06881420FD9081AE061E878D5
:10175000012803D1D4E902100844E060A08BE168BD
:1017600082B22846FFF790FF1FE0216AB1FBF0F23A
:1017700000FB121262B981420AD3606A814207D229
:10178000002211462846FFF77FFF66620DE016E053
:10179000D5F8E405C16829B195F81201032801D1F3
:1017A000284688472846FFF786FF95F81601012846
:1017B00008D1054800682969486085F8166101E08C
:1017C00028469047002070BD6800002070B505468F
:1017D00041B1D5F8E40582690AB395F812010328EE
:1017E0002CD02DE095F8110105F55D74032827D163
:1017F000E169A068814213D9081AE061E8780128FC
:1018000003D1D4E902100844E060E169A068814294
:1018100000D2084682B22846E168FFF72CFF0FE0AD
:10182000D5F8E405016929B195F81201032801D121
:10183000284688472846FFF75FFF01E02846904783
:10184000002070BD38B5044648880D46010A0429B9
:101850005CD2DFE801F05B021420D4F8EC15A0782C
:101860000A68694690470146E888402803D094F802
:101870001201012837D10820ADF8000037E0D4F874
:10188000E415A0788A6A69469047014602204870AC
:10189000C4F8F01527E0C0B2062837D2DFE800F020
:1018A00003080D12171CD4F8EC15A0784A6817E04D
:1018B000D4F8EC15A0788A6812E0D4F8EC15A0787A
:1018C000CA680DE0D4F8EC15A0780A6908E0D4F8ED
:1018D000EC15A0784A6903E0D4F8EC15A0788A6981
:1018E000694690470146BDF8000000280DD0E88801
:1018F00000280AD0BDF80020904200D91046ADF86B
:10190000000082B22046FFF7E7FE38BD2946204698
:10191000FFF7C3FE38BD01EB810100EBC100B0F859
:101920008C0380B2704770B5002300281DD0044698
:10193000002502E06D1CEDB2641C2678002EF9D162
:10194000022404EB45041480CC545B1C0322CA54CB
:101950005B1C002406E0CA545B1CDAB2401C8C54A9
:10196000521CD3B20278002AF5D170BD2DE9F041A6
:101970001D46174688460446069E00F0D9FBC4F86B
:10198000E45504F5BD65414685E8C0002046FEF7F4
:101990000DFF2868006880472046BDE8F04100F050
:1019A000B7BB10B5D0F8E415096A8847002010BD10
:1019B00010B5D0F8E415496A8847002010BD10B56D
:1019C00001F09EFB002010BD10B501F065FB00206A
:1019D00010BD10B504468121FEF7A8FC0221204667
:1019E000FEF7A4FC002010BD2020088000487047AE
:1019F0009E00002010B50446FFF7EBFF02234022B3
:101A000081212046FEF7D0FC0223402219462046C1
:101A1000FEF7CAFC2046FFF719FB002010BD0000AE
:101A20002DE9F0470446002500F016FF00287CD081
:101A3000204600F01AFF060078D0300303D5204678
:101A4000FEF7A6FD0546700303D52046FEF73AFDD6
:101A50000543B0074FF0000A02D5E1680220486153
:101A6000DFF804814FF00109002E18DAA07A30B1B6
:101A7000D4F80C01D4F80C1120F0030008602069A0
:101A8000416821F001014160D8F8000081692046D9
:101A90008847E1684FF00040486145F00105300596
:101AA00003D52046FEF708FE0543300709D5D8F8D0
:101AB0000000C16820468847E1680820486145F079
:101AC0000105F00603D52046FEF7B8FD0543F004F6
:101AD00003D52046FEF728FE0543B00419D520465D
:101AE00000F086FCE068C768204600F07BFE032813
:101AF0002FD084F80290402127F47050A18000F587
:101B0000A050E168C860E1684FF40050486145F0BA
:101B10000105F0020DD5D8F80000C16920468847BC
:101B2000E1684FF48010486101E00FE00FE045F0FC
:101B30000105B0020AD5D8F80000016A204688479E
:101B4000E1684FF40010486145F001052846BDE802
:101B5000F08784F802A04FF4007127F47050A18040
:101B600000F51050CDE700006400002090F8CC256F
:101B70000A7090F8CD254A7090F8CE2590F8CF35B0
:101B800002EB03224A8090F8D02590F8D13502EB81
:101B900003228A8090F8D22590F8D33502EB0322F5
:101BA00092B2CA800121C0F8402180F8111170471B
:101BB00010B50023044640221946FEF7F5FB00232A
:101BC000402280212046FEF7EFFB012084F812011D
:101BD000D4F8E815A07849688847002010BD10B5F2
:101BE0000446D0F8E80500698047032084F8120114
:101BF000002010BD10B5D0F8E415C96901B18847BF
:101C0000002010BD10B50446D0F8E4050268204657
:101C10009047D4F8E80580688047002010BD000098
:101C200070B50A461A4D897804462970012905D8ED
:101C300094F81201022807D003280CD02046BDE8F2
:101C400070401146FFF729BDA1B184F8101103209F
:101C500084F812010BE091B194F81001884209D088
:101C600001462046FFF700FD297884F81011204630
:101C7000FFF7C8FF2046BDE87040FFF73DBD0220DA
:101C800084F8120184F810112046FFF7EDFCF1E70B
:101C9000EC00002010B504464888012201280FD02E
:101CA000022831D1888810F0FF0F2DD121694968B1
:101CB000000A06281FD2DFE800F01E0B0F13171BC7
:101CC000C4F81821D4F8E40582682046904716E04D
:101CD00021F0700110310EE021F0700120310AE096
:101CE00021F07001303106E021F07001403102E056
:101CF00021F0700150310548016084F8162120461A
:101D0000BDE81040FFF7F8BC10BD000068000020DF
:101D10001CB504466946FFF729FF9DF8001011F035
:101D20001F000AD001280DD0022810D001F0800138
:101D30002046FEF77CFB00201CBD6946204600F0D3
:101D40000BF8F8E76946204600F0E8F8F3E7694643
:101D5000204600F079F8EEE72DE9F0414A780026B8
:101D600001250A2A42D2DFE802F03B5541524108E0
:101D700005412A27FFF766FD61E004468888C8B957
:101D8000C888B8B9887800F07F0794F81201032852
:101D900010D084F8147139462046FEF740FB2046E7
:101DA000FFF7AAFC1FB1022084F8120147E084F873
:101DB000125144E0204619E0FFF732FF3FE0CA88A5
:101DC000012A13D190F81221022A02D0032A0DD140
:101DD00002E001221B4917E0012200F5887113E09F
:101DE00090F81221022A04D0032A02D0FFF755FCF2
:101DF00025E014490839CD60D0F818210AB1032232
:101E0000CA6010490222091DFFF766FC17E0FFF7C0
:101E100041FF14E0044690F81201022801D0032883
:101E2000C8D1488801280AD10020C4F81801D4F884
:101E3000E4058268204690472046FFF75DFC304667
:101E4000BDE8F081F400002070B50D460446097924
:101E50006878002658B3012816D0032831D194F8A9
:101E6000120102282FD0032827D1688828B921B170
:101E7000802902D02046FEF7DAFAD4F8E405294694
:101E80008268204690470EE094F8120102281AD08A
:101E9000032812D16888A0B929B1802903D020462F
:101EA000FEF75AFAE9E72046FFF726FC09E094F826
:101EB0001201022807D003280DD029462046FFF73B
:101EC000ECFB304670BD0029FBD08029F9D02046BC
:101ED000FEF7ADFAF5E710480D064FF000034FF09E
:101EE000010208D501F07F0101EB810104EBC10182
:101EF00091F81E1105E001EB810104EBC10191F89D
:101F0000761309B1426000E0436003490222091DD3
:101F10002046FFF7E1FBD4E7EC00002070B5054652
:101F200090F8120100260C4603280DD120790128D3
:101F30000AD8D5F8E405826828469047E08830B989
:101F40002846FFF7D9FB02E02846FFF7A6FB3046FC
:101F500070BD10B500F589700178417004210170E1
:101F6000D0F8D604C0688047002010BD10B50A46DE
:101F7000024903A0FFF7D7FC004810BDD40700209A
:101F80004D534320436F6E6669670000704770478A
:101F900012200880004870478C000020704770476E
:101FA00070477047704700000A4610B5044928B1D1
:101FB00004A000BFFFF7B7FC014810BD03A0F9E77C
:101FC000D407002053616D6B6F6F6E004D5343203B
:101FD000496E7465726661636500000004200880C4
:101FE000004870478800002010B50A46024903A047
:101FF000FFF799FC004810BDD407002053544D69E9
:1020000063726F656C656374726F6E6963730000F1
:102010000A4610B5044928B104A000BFFFF783FCAD
:10202000014810BD06A0F9E7D407002053616D6B8D
:102030006F6F6E20504C43204465766963650000E5
:102040004D6173732053746F7261676520696E20F0
:102050004853204D6F6465000A4610B5044928B105
:1020600004A000BFFFF75FFC014810BD04A0F9E722
:10207000D4070020323031323131323300000000D9
:1020800030303030303030303030314100000000FE
:1020900008B504480090044B044A01210448FFF7A6
:1020A00065FC08BDFC000020C00000206C00002082
:1020B000E001002070B50F4C6078C00718D101F026
:1020C00033F90D484178002912D00D4D0D4E0B4AC1
:1020D0000D492A60F38B0B800021417060788121CB
:1020E00040F0010060700948FEF7BDF92868B06152
:1020F00070BD0000980100202C000020847A002090
:1021000028000020B001002032000020E001002063
:1021100008B543208DF8000001208DF80100002152
:102120008DF802108DF803006846FEF7A3FF08BD86
:102130002DE9FC4101210846FEF7E8FF012180203E
:10214000FEF7F0FF01208DF8040000248DF8064012
:102150000326DFF868804FF480558DF80560009500
:102160008DF8074069464046FEF7C8FEA8F81A50A9
:10217000C82000F025F802278DF8047068108DF84B
:10218000064000908DF805608DF80740694640468E
:10219000FEF7B4FE00958DF8047069464046FEF7E0
:1021A000ADFE0A220B214046FEF7F9FE0A220C2161
:1021B0004046FEF7F4FEBDE8FC810000000002404E
:1021C0004FF47A714843AFF300800021C0EB001058
:1021D0004000491C8142FCD9704770B50446017A21
:1021E0000025C068012915D0C16841F04001C160D7
:1021F000204600F0CBF8617A4FF4041009B14FF497
:102200004410E16888631420FFF7DAFFE0780128C2
:1022100019D020E0816B627A21F480310AB141F457
:1022200080118163E068C16821F0401121F4202110
:10223000C160204600F0AAF8E07801280BD1E168DF
:102240002A208860E2E7E068816821F01E010A31F7
:1022500041F020018160284670BD00002DE9F04169
:1022600004460027D0F80C013D462B460760206944
:10227000016821F4C0510160E07A4026012826D18E
:102280000321204600F0E2FAE0688021416218460E
:10229000E26866F31F4061F30F00906200EB1040AC
:1022A00060F30F03E06861F31F43C0F8043103EBF0
:1022B000134060F30F03E06865F31F43C0F8083173
:1022C00003EB134060F30F03E068C0F80C311021FA
:1022D000204600F067FA204600F048FA20690561C0
:1022E0002069456121694FF0FF3088612069C5612F
:1022F00000234FF09040FF2214E000BF04EB830C5A
:10230000DCF818E0DEF80010002901DA014600E0F0
:102310002946CEF80010DCF818100D61DCF8181012
:102320008A605B1C61789942E8D80023294613E053
:1023300004EB830CDCF854E0DEF80050002D01DAE9
:10234000054600E00D46CEF80050DCF854502961F7
:10235000DCF85450AA605B1C65789D42E8D820697F
:10236000016941F480710161E078012808D10320FE
:1023700066F38A00216940F4803066F359400863AF
:10238000204600F0C7F93846BDE8F081F8B50027CF
:1023900004463E460097124D0320FFF716FFE06803
:1023A00000690090761CAE4201D90020F8BD00986B
:1023B0000028F1DA0099002041F001010091009914
:1023C000E2681161E1680A690092401CA84202D8E3
:1023D000009AD207F7D10320FFF7F7FE3846F8BD81
:1023E000400D0300C0680021826882600846704783
:1023F00010B5016900238C6882691168C4F3410437
:102400002CB1012C03D0022C04D0032C05D16FF386
:102410000A0102E06FF30A01C91C116000694168FA
:1024200041F480714160184610BD0000F0B54A7853
:1024300000254C69012A15D00A7800EB82035A6DF9
:1024400016681269DCB38C68C1F8144064F30602A4
:102450005B6D22F4C01202F500221A61C278012AD3
:1024600030D035E083691F681A6934B18E68B44290
:1024700006D966F306024E6104E022F07F0201E015
:1024800064F3060222F4C01202F500221A61C27837
:10249000012A05D10C780A6900EB8404A469626101
:1024A00047F004421A60C278CAB94A69BAB10A78D8
:1024B000006901219140426B0A4342630FE0FFE74C
:1024C0000C7AC3E70B780A6900EB83035B6D5A61F2
:1024D000097846F0044200EB8100406D0260284616
:1024E000F0BD0000426D07491161C178012908D192
:1024F000426D00F2CC515161406D01684FF0802176
:1025000001607047180008C0F0B50E7800254F78BC
:102510000122B2402B4600EB8604012F19D0646DD6
:1025200062F31F43226816040DD40E8966F30A0273
:10253000CE78897966F3934261F3995242F08051E3
:1025400041F4004121600069C1691943C161284615
:10255000F0BDA46962F30F03E4E710B502464C78BE
:102560000B78002002EB8302012C09D0526D136816
:10257000C97823F40013032904D0022902D003E010
:102580009269F4E743F08053136010BD30B50C78C6
:1025900003464D7801220020A24003EB8401012D67
:1025A00009D04C6D014662F31F4120601A69D3695E
:1025B0008B43D36130BD8C69014662F30F01F4E7B0
:1025C00002464B780978002002EB8101012B05D0EF
:1025D000496D0A6842F400120A6070478A691168FE
:1025E000002901DA41F0804141F400111160704787
:1025F000F0B54B780A78002401264F6900EB82027F
:10260000012B15D0556D2B682A69002F62D08E687A
:1026100037447F1EB7FBF6F767F3DC42C2F3C947C6
:10262000774367F312022A61C278012A58D05DE02D
:1026300095692B682A696FB1D1F808C067F3120257
:1026400067447F1EB7FBFCF767F3DC42CF78012FAE
:1026500005D008E06FF3120266F3DC4203E022F0DB
:10266000C04202F100522A61C278012A0ED0CA7813
:10267000012A12D04A69C2B10A7896400269556BA4
:1026800035435563CA78012A07D00EE00D780A69F0
:1026900000EB8505AD696A61F4E702699268C2F3EF
:1026A0000D22D2070CD043F0805343F004420B7844
:1026B00000EB83039B691A60CA78012A03D026E0E5
:1026C00043F00053F1E78A8A93B20A78C96800F0B0
:1026D0006AF91CE08F6867F3120266F3DC42A2E736
:1026E0000D780A6900EB85056D6D6A61CA78012A6B
:1026F00006D14A7912B143F0005301E043F0805310
:10270000097843F0044200EB8100406D02602046EE
:10271000F0BD000030B5C368002211469A61C4685C
:102720006FF080436361C568541E6C60C468636168
:10273000C468094BA361C37803B91021C06841F490
:10274000872141F00811836941F440118B430B4309
:102750008361104630BD000000080080C068002181
:10276000826842F0010282600846704738B5002452
:1027700021460094009A42F010020092009AC36829
:102780001A61074AC06803690093491C914202D844
:10279000009BDB06F7D40320FFF717FD204638BD6A
:1027A000400D030038B5002422460094009B43F0FE
:1027B00020030093009B61F38A1300930099C36880
:1027C00019610749C06803690093521C8A4202D804
:1027D000009B9B06F7D40320FFF7F7FC204638BD8B
:1027E000400D03000146002009698968C1F34101D9
:1027F00039B1012903D0022905D0032900D10220D3
:10280000704703207047012070474A780978012AF1
:1028100000EB810006D0406D006881020ED54FF4B8
:102820008050704780690068810201D51020704790
:10283000800301D52020704730207047800302D5E7
:102840004FF4005070474FF44050704702691068D1
:1028500061F3010010607047C068406910F0010F1B
:1028600001D00020704701207047C068416980692D
:102870000840704700698169C069084080B27047AC
:1028800000698169C0690840000C704700EB810154
:10289000496D89680069406908407047034610B572
:1028A0000020D21C9208D3F8D03003E01C6841F815
:1028B000044B401C9042F9D3084610BD70B500226D
:1028C0000125C27040268570144613468680012972
:1028D00001D061B114E0C5720821017004214FF0EC
:1028E000A04241709115C1800221017208E0C372BB
:1028F0000C210170062141701F4A4FF4A061C18074
:1029000002F50061C0E9032100210AE002EB411356
:1029100003F5106600EB810503F53063AE61491CD9
:102920006B6543788B42F1D802F58061416140319B
:10293000C0F8CC10002108E002EB411300EB810548
:1029400003F5A063491CC5F8903003788B42F3D897
:10295000002108E002EB013300EB810503F5805311
:10296000491CC5F8D03003788B42F3D802F5606279
:10297000C0F80C21204670BD0000044010B5C068AE
:102980000024C268012922F0C04201D019B104E03C
:1029900042F0005201E042F08042C2603220FFF774
:1029A0000FFC204610BD30B5C47800256CB900EB93
:1029B00082000024DB1C9B08D0F8D00003E051F813
:1029C000042B0260641C9C42F9D3284630BD0000F1
:1029D0002DE9F04F012197B00846FEF797FB012142
:1029E0000220FEF793FB01211020FEF7B3FB01212B
:1029F0008804FEF7A3FB01210220FEF787FB0121DB
:102A00004805FEF783FB01218805FEF77FFBDFF811
:102A10004882072209214046FEF7C1FADFF83C92BE
:102A200007220A214846FEF7BAFA07220A21404641
:102A3000FEF7B5FA07220B214846FEF7B0FA00244C
:102A40008DF8424001208DF84300022540028DF8A8
:102A5000405003270F908DF841700FA94046FEF7B4
:102A60004DFA6E028DF840500FA940460F96FEF7C2
:102A700045FA4FF4E1301290ADF850400C20ADF81B
:102A80004C40ADF85200ADF84E40ADF8544012A99C
:102A90007348FEF7DDFC01217148FEF7AFFC012011
:102AA0008DF8400000038DF841500F908DF84240A2
:102AB0008DF843400FA94846FEF720FA6749E8021F
:102AC0001A3108808DF8424001208DF843008DF8BE
:102AD00040500F968DF841700FA94846FEF70EFA48
:102AE000A8020F908DF840500FA94846FEF706FA4D
:102AF0004FF4E1301290ADF850400C20ADF84C404E
:102B0000ADF85200ADF84E40ADF8544012A955480A
:102B1000FEF79EFC01215348FEF770FC25208DF83E
:102B2000440007258DF845508DF8464001208DF86A
:102B3000470011A8FEF79EFA40F2255801224146AF
:102B40004748FEF76DFC27208DF844008DF845506E
:102B50008DF8464001208DF8470011A8FEF78AFA4B
:102B6000012241463F48FEF75BFC3F48FDF762FF0C
:102B70003E48FDF75FFF4FF040093D480894CDE91E
:102B800002094FF4803A4FF481680994CDF828A0E7
:102B90003348CDE90664CDE90484001D4FF0006B95
:102BA000CDE900B00120CDE90B400D9469462E48D7
:102BB0000E94FDF7EBFF2F480894CDE90209099424
:102BC000CDF828A02748CDE90664CDE90484001D8E
:102BD000CDE900B00120CDE90B400D9469462348B2
:102BE0000E94FDF7D3FF46208DF844008DF8455034
:102BF0008DF8464001208DF8470011A8FEF73AFAFB
:102C00000E208DF844008DF845508DF84640012087
:102C10008DF8470011A8FEF72DFA012280211048F7
:102C2000FEF7F6FB012280210E48FEF7F1FB0121A1
:102C30000420FEF76BFA01208DF840008DF8424029
:102C40008DF841700F958DF843400FA90A48FEF7A3
:102C500055F917B0BDE8F08F0000024000040240B3
:102C60000010014000480040B86402405860024033
:102C7000246A00203C7600200008024002E008C8D8
:102C8000121F08C1002AFAD170477047002001E0E6
:102C900001C1121F002AFBD17047000030B5114856
:102CA000017800291DD0D0E901148C4217D30346C6
:102CB000027B1B69D5074FF0000106D022F001020C
:102CC00042F00A020273436107E0150707D522F0BC
:102CD000080242F011020273836101700161641CF9
:102CE000846030BD2801002030B51348017F0029E1
:102CF00020D0D0E908148C421AD3034690F828203B
:102D0000DB6AD5074FF0000107D022F0010242F044
:102D10000A0280F82820036308E0150708D522F08E
:102D2000080242F0110280F8282043630177C16253
:102D3000641C446230BD0000280100202DE9FC5FC6
:102D40000546C0EBC501674800EB8106284674695B
:102D500000F01EF9308B002872D031690A78F02A11
:102D60002FD1B1F80170B842E8B201D0612104E07E
:102D7000FDF7CAFF010003D0E8B2FDF7A9FF20E08C
:102D80003069DFF864B14FF00008C1784FF0010AF4
:102D9000112937D004DC012918D0102904D12FE0E3
:102DA000122951D013297BD0E8B26421FDF790FF9E
:102DB000B08A201A81B2E8B2FDF76EFF708386F800
:102DC0000DA02846BDE8FC5F00F00EBA84F804A010
:102DD0000220607124F8068F40F20321A4F80280DB
:102DE000A4F8048084F80680A4F8071084F8098009
:102DF00084F80A8084F80B80681C20730D34D7E7B0
:102E0000102069E0C068B0F5A02F02D9E8B26521B2
:102E1000B3E73648ADB180F800A000BFFDF728FF4A
:102E2000316933484A68026089684160FDF7D8FE1D
:102E300011202071ABF80080641DCBF80480B7E747
:102E40004DE080F80080E9E7B0F80480BBF800208E
:102E50009045ADD1A7F1080908F0FF021FFA89F1EA
:102E6000801DFDF756FD3169224BDBF804001FFA87
:102E700089F2891DD9461844FDF7FAFFB9F8000018
:102E8000401CA9F80000D9F8040038440838C9F8F3
:102E900004001220207124F8058FA41C88E7FFE7A6
:102EA00015A1D1E90001CDE90001114800991030C8
:102EB000016001994160FDF7D7FE0D492A221239C0
:102EC0000F48FDF7D5FF0F49FE2004220870694620
:102ED0000D48FDF7CDFF13202071641D68E7BDE8A4
:102EE000FC9F000060010020180000201600002058
:102EF000D67A002000000108CCCCCCCCCCCCCCCCF9
:102F0000004000081400002000F807081E4810B513
:102F100002881E48028003881421A3F57F44FF3CE9
:102F20002FD0194B1B1F1B689A1A042A29D1B3F5FD
:102F3000804F26D81449891C097881701249C91C10
:102F40000978C1701049091D097801710E49491DA0
:102F5000097841710C49891D097881710A49C91D97
:102F60000978C171084908310978017206490931A7
:102F70000978417204490A310978817202490B319A
:102F80000988818110BD000004C0000818010020DC
:102F9000F0B500EBC011164A01EB410102EBC1058F
:102FA000144A164E02EBC104C0EBC00112484FF0A8
:102FB000000300EB810006EB8101027B970709D536
:102FC00022F0020242F004020273828A0A83436101
:102FD0000D61F0BDD50609D522F0100242F02002A5
:102FE0000273028B0A8343610C61F0BD0B83F0BD59
:102FF000146200201C6600202801002060010020CF
:103000000C480B4901610C4941610C49C1620C49F2
:10301000016300213838012202738160016101706F
:10302000426080F828204162C162017702627047E5
:103030001462002060010020246A00202C6E002011
:103040003C76002010B51248104C104B4034C0E9BB
:1030500000340F49002008310E4A8870C87048714A
:1030600008714870908302F12001D0838880C88065
:103070000881C8810880888148814880C2E9053478
:10308000383988700120107010BD0000447A00208B
:1030900024000020B001002070B502211248FDF785
:1030A000FDF9124C80B2A17801291BD0B0F5005F68
:1030B00016D102210C48FEF72EFC0D4E0D4D40237B
:1030C0003080022108482A68FDF78CF90A483188C7
:1030D00081830A4929604161607820F001006070B5
:1030E0000120A07070BD0000E001002098010020C8
:1030F0003400002024000020B0010020447A002089
:1031000010B581210C48FDF7C9F980B2302812D1E1
:103110000A4800218170417821F00101417008487E
:103120000178FC2907D1012101706420FDF770FDB1
:1031300005490448086010BDE00100209801002006
:10314000140000200400FA050CED00E0FDF75EF825
:10315000234C10F0FF0F4FF0000500D12570FDF754
:10316000A5F880B372B671B600214FF00060FDF78C
:10317000BDFF4FF44070FDF7AFFFFFF741FFFFF7D2
:1031800061FFFFF725FCFFF7C1FE0020FEF7BCF949
:103190000120FEF7B9F9FEF77BFF4FF0E02001694F
:1031A00021F00401016143F6972141610D4A10218C
:1031B00011708561016941F00301016101202070F6
:1031C00062B661B602E0FFE7FDF702FF4FF4FA7561
:1031D0002078FDF71BFF2846FDF71AFDF8E70000F1
:1031E0001400002023ED00E0C0EBC001074800EB15
:1031F0008101087B420702D520F0440003E08206EB
:1032000002D520F0600008737047000028010020FC
:103210000948418B00290ED00848026842F010028C
:103220000260026822F001020260021D1160016862
:1032300041F001010160704760010020B864024064
:103240000B48C18E002911D00A4A4FF480501080DB
:103250000948826D42F010028265826D22F00102FF
:103260008265C165816D41F0010181657047000093
:1032700060010020180402400060024070B5094E51
:103280000446F02130680170A11C8DB2A0F80150F5
:103290006021C1702146FDF733F831680853284694
:1032A00070BD00002800002030B50C4DF0212C68C6
:1032B00021700621A4F80110E07004212868FDF7B0
:1032C0001FF80749A0800120487028880549A41DDF
:1032D000201AC88304490020887030BD28000020CF
:1032E0002C000020B0010020980100200CB50D48F2
:1032F000818B032901D861200CBD4069891E89B2E8
:10330000425AADF80420FCF7FBFFADF80000BDF811
:103310000000BDF80410884201D100200CBD6320DC
:103320000CBD0000B00100202DE9FC5F5D48046881
:103330005D48807800287DD05C485D4D00686861FC
:103340000178F02976D1B0F80160A88BB04201D0A5
:1033500061203BE0FFF7CAFF78BB68690221554F47
:10336000C278A8464FF0010B4FF00009112A27D070
:1033700004DC012A08D0102A04D11FE0122A3DD013
:10338000132A61D0642021E084F804B0617124F82C
:10339000069F40F20321A4F80290A4F8049084F858
:1033A0000690A4F8071084F8099084F80A9084F82D
:1033B0000B90032020730D3464E007E010205FE0E1
:1033C000C0684546B0F5A02F04D96520BDE8FC5F74
:1033D000FFF76ABF38480170FDF74AFC6969374852
:1033E0004A68026089684160FDF7FAFB112020718C
:1033F000A7F80290641DC7F8089043E08588798893
:10340000BA468D423ED1A6F10807EAB2B9B2801D94
:10341000FDF77FFAD8F81410294BDAF80800BAB291
:10342000891D57461844FDF723FD7888401C788095
:10343000B86800E034E030440838B86012202071E9
:10344000A4F80550E41D1DE01EA1D1E90001CDE95D
:1034500000011A4800991030016001994160FDF7A0
:1034600003FC16492A2212391848FDF701FD1849B4
:10347000FC200422087069461648FDF7F9FC132069
:103480002071641D07480088201A80B2FFF7F6FEFD
:103490001149A8F81E0081F801B0034981F8029093
:1034A000BDE8FC9F28000020980100202400002097
:1034B000B00100201800002016000020D67A00205D
:1034C00000000108CCCCCCCCCCCCCCCC004000084B
:1034D0001400002000F807082C0000200000C1C0E4
:1034E00081C1400101C3C003800241C201C6C006C0
:1034F000800741C70005C1C581C4400401CCC00C90
:10350000800D41CD000FC1CF81CE400E000AC1CA4F
:1035100081CB400B01C9C009800841C801D8C0183F
:10352000801941D9001BC1DB81DA401A001EC1DEBF
:1035300081DF401F01DDC01D801C41DC0014C1D4AF
:1035400081D5401501D7C017801641D601D2C012CF
:10355000801341D30011C1D181D0401001F0C0309F
:10356000803141F10033C1F381F240320036C1F6BF
:1035700081F7403701F5C035803441F4003CC1FC8F
:1035800081FD403D01FFC03F803E41FE01FAC03A4F
:10359000803B41FB0039C1F981F840380028C1E87F
:1035A00081E9402901EBC02B802A41EA01EEC02EBF
:1035B000802F41EF002DC1ED81EC402C01E4C024AF
:1035C000802541E50027C1E781E640260022C1E2CF
:1035D00081E3402301E1C021802041E001A0C060DF
:1035E000806141A10063C1A381A240620066C1A6BF
:1035F00081A7406701A5C065806441A4006CC1AC8F
:1036000081AD406D01AFC06F806E41AE01AAC06A4E
:10361000806B41AB0069C1A981A840680078C1B83E
:1036200081B9407901BBC07B807A41BA01BEC07EBE
:10363000807F41BF007DC1BD81BC407C01B4C074AE
:10364000807541B50077C1B781B640760072C1B2CE
:1036500081B3407301B1C071807041B00050C1901E
:10366000819140510193C053805241920196C056BE
:10367000805741970055C19581944054019CC05C8E
:10368000805D419D005FC19F819E405E005AC19A4E
:10369000819B405B0199C059805841980188C0487E
:1036A00080494189004BC18B818A404A004EC18EBE
:1036B000818F404F018DC04D804C418C0044C184AE
:1036C000818540450187C047804641860182C042CE
:1036D000804341830041C181818040402527000013
:1036E000000000200000000400060000001001405F
:1036F00000480040C012000080250000004B000080
:103700000096000000E1000000C201002C37000814
:1037100000000020180100007C2C0008443800083C
:1037200018010020000B00008C2C00080000000095
:103730000102030401020304060708090000000057
:10374000FF00FF000000000000000000000000007B
:103750000000000000000000000000000000000069
:1037600000000000CD1700081D170008111D0008FB
:10377000F51B0008B11B0008531F0008DF1B0008E1
:10378000A3190008B11900080000000000000000A3
:103790003800002000000000911F0008DD1F000815
:1037A000E91F000811200008592000086D1F0008BB
:1037B000A91F00080403090412010002FF000040D1
:1037C000E804895100020102000109022000010100
:1037D0000080190904000002FF00000407058102AF
:1037E000400000070502024000000000F519000833
:1037F000D3190008000000000000000000000000D5
:10380000BF190008C91900080000000000000000EE
:1038100000000000E919000800000000000000009E
:103820000000000000000000A51F00089F1F000806
:103830008D1F0008A31F0008A11F00088F1F00088C
:043840009D1F0008C0
:040000050800018569
:00000001FF
